:020000040000FA
:100000000C9434000C9451000C9451000C94510049
:100010000C9451000C9451000C9451000C9451001C
:100020000C9451000C9451000C9451000C9451000C
:100030000C9451000C9451000C9451000C945100FC
:100040000C9489010C9451000C9451000C945100B3
:100050000C9451000C9451000C9451000C945100DC
:100060000C9451000C94510011241FBECFEFD8E026
:10007000DEBFCDBF11E0A0E0B1E0EEE7F5E002C0E9
:1000800005900D92A033B107D9F721E0A0E3B1E0CC
:1000900001C01D92A933B207E1F70E94D3010C946D
:1000A000BD020C9400003FB7F89480913501909107
:1000B0003601A0913701B091380126B5A89B05C043
:1000C0002F3F19F00196A11DB11D3FBFBA2FA92FD7
:1000D000982F8827BC01CD01620F711D811D911DD4
:1000E00042E0660F771F881F991F4A95D1F7089540
:1000F0008F929F92AF92BF92CF92DF92EF92FF9238
:100100004B015C010E9453006B017C010E94530073
:100110006C197D098E099F09683E73408105910520
:10012000A8F321E0821A9108A108B10888EEC80E50
:1001300083E0D81EE11CF11C81149104A104B104D8
:1001400029F7FF90EF90DF90CF90BF90AF909F90F6
:100150008F90089580FF15C05D9A81FF14C05C9A4E
:1001600082FF13C05B9A83FF12C05A9A2B9A83E0D6
:1001700090E00197F1F72B988BEE90E00197F1F763
:1001800008955D98EACF5C98EBCF5B98ECCF5A98D6
:10019000EDCFCF93C82F2C9A85958595859585951C
:1001A0000E94AA008C2F8F70CF910C94AA001F93ED
:1001B000CF93DF93CDB7DEB761970FB6F894DEBF6C
:1001C0000FBECDBF182F81E1E0E0F1E0DE01119616
:1001D00001900D928A95E1F7E12FF0E084E0F5952A
:1001E000E7958A95E1F781E090E08C0F9D1FE80F7D
:1001F000F91F80810E94C900E12FEF7081E090E03B
:100200008C0F9D1F8E0F911DFC01808161960FB692
:10021000F894DEBF0FBECDBFDF91CF911F910C943C
:10022000C900CF93DF93EC018991882319F00E94D4
:10023000C900FACFDF91CF910895CF93C82F2C98A2
:1002400082958F700E94AA008C2F8F700E94AA0046
:10025000C43038F462E070E080E090E0CF910C941C
:100260007800CF91089545983D9A08953D98089556
:1002700044983C9A08953C9808958AE18A95F1F74C
:10028000000000000895CF93DF93D82FC8E0D7FF78
:1002900023C00E943B010E943D010E9436010E9442
:1002A0003D010E9433010E943D01DD0FC15079F7ED
:1002B0000E943B010E943D010E9436010E943D01C7
:1002C000C6B10E9433010E943D01C295C17081E018
:1002D0008C27DF91CF9108950E943801DCCF0E94D6
:1002E00038010E943D010E9436010E943D010E949A
:1002F0003B010C943D010E943B010E9436010E948B
:100300003D010E9438010E943D010E9433010C947E
:100310003D011F920F920FB60F9211242F933F931E
:100320008F939F93AF93BF9380913101909132014E
:10033000A0913301B09134013091300123E0230FBB
:100340002D3758F50196A11DB11D209330018093E2
:10035000310190933201A0933301B0933401809125
:10036000350190913601A0913701B0913801019685
:10037000A11DB11D8093350190933601A0933701E3
:10038000B0933801BF91AF919F918F913F912F9181
:100390000F900FBE0F901F90189526E8230F02961E
:1003A000A11DB11DD2CF789484B5826084BD84B57F
:1003B000816084BD85B5826085BD85B5816085BD60
:1003C00080916E00816080936E0010928100809118
:1003D00081008260809381008091810081608093A0
:1003E0008100809180008160809380008091B100C5
:1003F00084608093B1008091B00081608093B000F0
:1004000080917A00846080937A0080917A00826083
:1004100080937A0080917A00816080937A00809145
:100420007A00806880937A001092C1000E943B019C
:100430000E943601259A8AB18C638AB984B1886199
:1004400084B962E370E080E090E00E9478002C982C
:1004500083E00E94AA0065E070E080E090E00E94E6
:10046000780083E00E94AA0083E592E00197F1F70B
:1004700083E00E94AA0082E00E94AA0088E20E9413
:100480001D018CE00E941D0186E00E941D0181E09B
:100490000E941D010E947B0180EA0E94430180E1CD
:1004A0000E94430185EA0E9443010E946F01C8EE49
:1004B000D3E00E947B0180EA0E944301182F0E9432
:1004C0006F01111102C02197A1F70E947B0180EA00
:1004D0000E94430180E10E9443010E947B0181EA66
:1004E0000E9443010E943B01D8E0C0E00E94360117
:1004F0000E943D0186B182958170CC0FC82B0E946D
:1005000033010E943D01D15089F70E943B010E94B6
:100510003D010E9436010E943D010E9433010E946C
:100520003D010E943B010E946F0180E80E941D0175
:1005300081E191E00E94110185EA0E94D70084E1E7
:1005400091E00E9411018C2F0E94D70080EC0E9444
:100550001D01C53A61F488E191E00E9411012D9AD4
:10056000C0E0D0E02097F1F30E940000FBCF82E2D0
:1005700091E00E9411012D98F3CFF894FFCF303114
:1005800032333435363738394142434445460057D3
:100590003A0020523A00454550524F4D204F4B00F3
:0E05A000454550524F4D204552524F520000DB
:107E0000112484B714BE81FFF0D085E080938100F7
:107E100082E08093C00088E18093C10086E0809377
:107E2000C20080E18093C4008EE0C9D0259A86E02C
:107E300020E33CEF91E0309385002093840096BBD3
:107E4000B09BFECF1D9AA8958150A9F7CC24DD24C4
:107E500088248394B5E0AB2EA1E19A2EF3E0BF2EE7
:107E6000A2D0813461F49FD0082FAFD0023811F036
:107E7000013811F484E001C083E08DD089C08234E0
:107E800011F484E103C0853419F485E0A6D080C0E4
:107E9000853579F488D0E82EFF2485D0082F10E0AE
:107EA000102F00270E291F29000F111F8ED06801E7
:107EB0006FC0863521F484E090D080E0DECF843638
:107EC00009F040C070D06FD0082F6DD080E0C81688
:107ED00080E7D80618F4F601B7BEE895C0E0D1E017
:107EE00062D089930C17E1F7F0E0CF16F0E7DF06D8
:107EF00018F0F601B7BEE89568D007B600FCFDCFD4
:107F0000A601A0E0B1E02C9130E011968C91119780
:107F100090E0982F8827822B932B1296FA010C0160
:107F200087BEE89511244E5F5F4FF1E0A038BF0790
:107F300051F7F601A7BEE89507B600FCFDCF97BE46
:107F4000E89526C08437B1F42ED02DD0F82E2BD052
:107F50003CD0F601EF2C8F010F5F1F4F84911BD097
:107F6000EA94F801C1F70894C11CD11CFA94CF0C13
:107F7000D11C0EC0853739F428D08EE10CD085E9AC
:107F80000AD08FE07ACF813511F488E018D01DD067
:107F900080E101D065CF982F8091C00085FFFCCF94
:107FA0009093C60008958091C00087FFFCCF809118
:107FB000C00084FD01C0A8958091C6000895E0E648
:107FC000F0E098E1908380830895EDDF803219F02E
:107FD00088E0F5DFFFCF84E1DECF1F93182FE3DFCA
:107FE0001150E9F7F2DF1F91089580E0E8DFEE27F6
:047FF000FF270994CA
:027FFE00040479
:00000001FF
